:020000040800F2
:1000000050110020911C0008ED060008EF060008C2
:10001000F3060008F7060008FB06000800000000D1
:10002000000000000000000000000000FF060008C3
:10003000010700080000000003070008050700088A
:10004000AB1C0008AB1C0008AB1C0008AB1C000874
:10005000AB1C0008AB1C00086F180008AB1C0008A4
:10006000AB1C0008AB1C0008AB1C0008AB1C000854
:10007000AB1C0008AB1C0008AB1C0008AB1C000844
:10008000AB1C0008AB1C0008AB1C0008AB1C000834
:10009000AB1C0008AB1C0008AB1C000805190008CD
:1000A000AB1C0008AB1C0008AB1C0008AB1C000814
:1000B000C70B0008130A0008613E0008AB1C0008CB
:1000C000AB1C0008AB1C0008AB1C0008AB1C0008F4
:1000D000AB1C0008071C0008AB1C00080D0C000836
:1000E000AB1C0008AB1C0008AB1C0008AB1C0008D4
:1000F000AB1C0008AB1C0008AB1C0008AB1C0008C4
:10010000AB1C0008AB1C0008B10B0008AB1C0008BE
:10011000AB1C0008AB1C0008DD0B0008350900080B
:10012000AB1C0008AB1C0008AB1C0008AB1C000893
:1001300000F002F800F0B0F80AA090E8000C824449
:100140008344AAF10107DA4501D100F0A5F8AFF226
:10015000090EBAE80F0013F0010F18BFFB1A43F0A5
:10016000010318476C7D00008C7D00000A444FF0AD
:10017000000C10F8013B13F0070408BF10F8014B06
:100180001D1108BF10F8015B641E05D010F8016B4B
:10019000641E01F8016BF9D113F0080F1EBF10F8AF
:1001A000014BAD1C0C1B09D16D1E58BF01F801CBD2
:1001B000FAD505E014F8016B01F8016B6D1EF9D555
:1001C0009142D6D37047000000230024002500266A
:1001D000103A28BF78C1FBD8520728BF30C148BFAA
:1001E0000B6070476E2904F0F985702904F099843A
:1001F000662906F0DF81652906F0DC81672906F0B3
:10020000D9816129AFF3008003681B0A28BF41F040
:100210008001692904F00A84642904F0078475299F
:1002200004F004846F2904F0F186782904F06584D1
:10023000E92904F08B86E42904F08886F52904F086
:100240008586EF2904F0EE86F82904F064840368BB
:10025000DB0928BF41F08001632904F0FA85732986
:1002600004F0FF85E32905F04381F32905F0488177
:10027000002070471FB505F099F904000020002107
:1002800005F07CFE401C60600020002105F060FE4F
:10029000E0601FBD10B510BD05F05AF91146FFF71B
:1002A000E9FF00F009F805F033FA03B4FFF7F2FFB5
:1002B00003BC01F04DFC000008B500BF00BF01F019
:1002C000DDFB01F0EBF94FF4A06001F001FD4FF40C
:1002D000165001F04CFC41F61F4141F2883000F00D
:1002E000FEFB01F035FABB4841684820884700F022
:1002F000ADFF1023B8A20021084600F078FF1023BC
:10030000B7A21946002000F072FF1023B6A22021E8
:10031000002000F06CFF00F0E7FA002140F283308B
:1003200000F082FB01F052F84FF47A7001F0E3FB29
:1003300000BF00F029FD0028FBD1AD49088047E14E
:10034000AC480068012808D1ABA000F0EDFCA8483B
:10035000008840F40040A6490880A648001F0068B5
:10036000012808D1AAA000F0DFFCA148008840F4D1
:1003700000409F4908809F4808380068012808D13C
:10038000AAA000F0D1FC9A48008840F400409849A7
:1003900008809848001D0068012808D1A9A000F035
:1003A000C3FC9348008840F400409149088091487C
:1003B00008300068012808D1A9A000F0B5FC8C48DD
:1003C000008840F400408A4908808948008800F489
:1003D000004000287ED0A8484078312806D101F09E
:1003E0004DF9A6480178A6A000F09EFCA2484078EE
:1003F000332806D101F042F9A6480178A6A000F002
:1004000093FC9D484078322801D101F00BF89A48BE
:100410004078342801D101F018F897484078352801
:1004200001D101F048F894484078362801D101F014
:100430001EF891484078382801D101F02AF88E48FA
:100440004078392879D198A000F06EFC00206849E6
:100450000880B0E06648008800F4004048B1864853
:100460004078392805D101F026F895A000F05CFC11
:10047000A6E000F0D7FF0221964801F0D5FA964891
:100480000568284605F0C6FF0746102003233A46B4
:1004900000210090322000F060FE40218F4801F0E2
:1004A000C3FA8F480668304605F0B4FF07461020AF
:1004B00003233A4601460090322000F04EFE4FF4EE
:1004C0008071864801F0B0FA86480468204605F03D
:1004D000A1FF00E079E00746102003233A462021DF
:1004E0000090322000F039FE00F00AFD7E492846D7
:1004F00005F0B0FF2ED27C49204605F0ABFF0BD2B1
:100500007949304606F025F806D200F09EFF4FF4F8
:10051000C87001F0F0FA4EE07349204605F09AFFEA
:100520000CD27149304605F095FF07D200F0B1FFBB
:100530004FF4C87001F0DFFA3DE042E06A4920461E
:1005400006F007F837D200F092FF4FF4C87001F0C0
:10055000D2FA30E06449204605F07CFF0BD26249B4
:10056000304605F0F6FF06D200F06FFF4FF4C8707A
:1005700001F0C1FA1FE05C49204605F06BFF0AD28A
:100580005949304605F066FF05D200F04BFFC82000
:1005900001F0B1FA0FE05449204605F0DAFF0AD223
:1005A0005149304605F056FF05D200F060FF4FF488
:1005B000C87001F0A0FA3048407839283FF44AAFBB
:1005C00000BF00BF00200A490880052001F093FA0F
:1005D000B6E600008400002066726F6E743A000078
:1005E0006C6566743A00000072696768743A0000CE
:1005F000140000200801234246524F4E5421464920
:10060000524520444554454354454421A15C6E0065
:1006100052494748542046524F4E5421464952456C
:10062000204445544543544544210A005249474813
:10063000542120464952452044455445435445449D
:10064000210A00004C4546542046524F4E5421206A
:1006500046495245204445544543544544210A00E7
:100660004C45465421204649524520444554454373
:10067000544544210A0000007801002016000020A3
:1006800074656D70657261747572652025640D0AFC
:10069000000000001700002068756D6964697479B6
:1006A0002025640D0A000000656E746572696E672E
:1006B000206175746F206D6F6465200A0000000072
:1006C000656E64696E67206175746F206D6F646517
:1006D0000A0000000008014018000020000C014042
:1006E000200000201C00002000000C42704700BFCA
:1006F000FEE700BFFEE700BFFEE700BFFEE7704772
:1007000070477047704700000CB5002001900090C2
:100710006C48006840F480306A49086000BF69484E
:10072000006800F4003000900198401C019000988F
:1007300018B90198B0F5A06FF1D16248006800F4D3
:10074000003010B10120009001E0002000900098DE
:10075000012843D15C48006840F010005A49086005
:100760000846006820F0030008600846006840F072
:100770000200086053484068524948600846406893
:1007800048600846406840F4806048600846406819
:1007900020F47C1048600846406840F4E810486047
:1007A0000846006840F08070086000BF4548006857
:1007B00000F000700028F9D04248406820F00300A3
:1007C000404948600846406840F00200486000BF69
:1007D0003C48406800F00C000828F9D10CBD10B569
:1007E000FFF792FF10BD10B53648006840F00100D9
:1007F0003449086008464068344908403149486037
:1008000008460068324908402E49086008460068DA
:1008100020F4802008600846406820F4FE0048600C
:100820004FF41F008860FFF7DAFF4FF0006029499E
:10083000086010BD10B5002100200022214B5B682C
:1008400003F00C0121B1042906D0082928D107E0C2
:10085000214B224C236027E01F4B204C236023E0D8
:10086000184B5B6803F47010164B5B6803F480321E
:10087000022303EB904022B9194B4343174C2360EA
:100880000DE0104B5B6803F4003323B1144B43437A
:10089000124C236003E0104B4343104C236003E0F1
:1008A0000D4B0E4C236000BF00BF064B5B68C3F3CB
:1008B00003130C4CE15C094B1B68CB40074C2360D5
:1008C00010BD000000100240002002400000FFF8B0
:1008D000FFFFF6FE08ED00E000127A0000000020A5
:1008E00000093D000400002008B50121482001F066
:1008F00079FD2020ADF8000010208DF803000320C2
:100900008DF802006946094801F0B0FA2021074835
:1009100001F059FB2020ADF800006946044801F0C1
:10092000A5FA2021024801F04EFB08BD000C014051
:100930000018014010B50121AE4802F0B4FE68B1C4
:10094000AD48008840F40040AB4908800121A94827
:1009500002F0BAFE0021A74802F0DCFB10BD7FB513
:1009600005460C460121202001F049FDADF8045058
:10097000ADF800400020ADF80600ADF80200694671
:100980009C4802F06BF8012211469A4802F0DDFB08
:100990000121984802F0BEFB37208DF80C000020A2
:1009A0008DF80D0002208DF80E0001208DF80F004B
:1009B00003A801F092F97FBD7FB505460C460121E1
:1009C000022001F01CFDADF80850ADF804400020F5
:1009D000ADF80A00ADF8060001A9884802F03EF81B
:1009E00001221146854802F0B0FB1D208DF8000061
:1009F00000208DF8010003208DF8020001208DF801
:100A00000300684601F069F901217C4802F082FB8D
:100A10007FBD10B50121794802F045FE18B10121D2
:100A2000764802F051FE10BD30B589B005460C463F
:100A30000121022001F0E3FC0121042001F0D2FC9D
:100A40008020ADF8200018208DF8230003208DF8B9
:100A5000220008A96A4801F009FA4020ADF82000F8
:100A600018208DF8230003208DF8220008A964487F
:100A700001F0FCF9ADF81850ADF814400020ADF8C5
:100A80001A00ADF8160005A95C4801F0E7FF7020D8
:100A9000ADF804000120ADF806000020ADF80C0010
:100AA00001A9564802F059F80821544802F06BFC9D
:100AB0007020ADF804000120ADF806000020ADF86C
:100AC0000C0001A94D4802F006F808214B4802F03D
:100AD00051FC0121494802F01DFB09B030BD7FB532
:100AE00005460C460121192001F089FC0020ADF8D3
:100AF0000600ADF80850ADF80440ADF80A0001A9B1
:100B0000404801F0ABFF01A94FF0804001F0A6FF83
:100B100001A93D4801F0A2FF01221146394802F027
:100B200014FB01224021374802F00FFB012211463D
:100B3000900702F00AFB01224021080602F005FBA3
:100B400001221146304802F000FB012240212E48CC
:100B500002F0FBFA32208DF8000001208DF803002E
:100B600000208DF8010002208DF80200684601F097
:100B7000B4F81C208DF8000001208DF8030000203F
:100B80008DF8010003208DF80200684601F0A5F8F9
:100B900036208DF8000001208DF8030000208DF82C
:100BA000010003208DF80200684601F096F87FBD31
:100BB00010B50121134802F076FD18B1012111484A
:100BC00002F082FD10BD10B50121880702F06BFD17
:100BD00018B10121880702F077FD10BD10B5012181
:100BE000094802F060FD18B10121074802F06CFDD0
:100BF00010BD00000014004014000020000400405C
:100C000000080140000C00400010004010B540F208
:100C10002551574801F00AFEF8B1554801F086FD0C
:100C2000C4B25448008800F40040B0B9514800886C
:100C3000B0F5167F12DA00214F4802F0FFFC4D4854
:100C4000008818B901214C4802F064FA4949088823
:100C5000411C484A118049490C5405E04548008828
:100C600040F400404349088010BD10B586B00446EA
:100C70000121082001F0B6FB0121880401F0BFFB2F
:100C80003B4801F013FC4FF48060ADF810000320E6
:100C90008DF8120018208DF8130004A9384801F0CF
:100CA000E5F84FF40060ADF8100004208DF8130053
:100CB00004A9334801F0DAF800940020ADF80400EC
:100CC000ADF80600ADF80800ADF80C000C20ADF84A
:100CD0000A006946264801F02CFC0121244801F055
:100CE000B4FC012240F22551214801F0BAFC272032
:100CF0008DF8140002208DF8150003208DF81600E1
:100D000001208DF8170005A800F0E7FF41F61F410C
:100D10006320FFF724FE00201649088000211648B2
:100D200002F0F8F906B010BD0FB438B505A8009070
:100D30001448009A049903F00BFE0020009011481B
:100D400003F0BEFF85B200240DE000BF402108483B
:100D500001F056FD0028F9D00A48015D044801F071
:100D6000E1FC601C84B2AC42EFDB38BC5DF814FBE4
:100D700000480040140000200014004078010020CA
:100D8000000C0140D0030020F8B50A2401260121FF
:100D9000042001F027FBF003ADF8000048208DF897
:100DA000030003208DF8020069463D4801F05EF81B
:100DB0001020ADF800008DF8030003208DF802002C
:100DC0006946374801F052F81021354801F0FBF828
:100DD0000121344801F01BF90120334908603349EF
:100DE000C1F83C014FF41650FFF73FFF27E030A059
:100DF000FFF79AFF00250AE02F48008800F4004022
:100E000000B106E0052000F076FE681CC5B20A2D90
:100E1000F2DB00BF2848008800F4004078B1264883
:100E20000088C6B2002024490880244800784F2852
:100E300005D1224840784B2801D1002604E020004B
:100E4000A4F10101CCB2D2D100BF04B901263046D1
:100E5000F8BD70B50446214619A0FFF765FF0026CE
:100E60000AE01548008800F4004000B106E00A20BE
:100E700000F041FE701CC6B2322EF2DB00BF0E48FD
:100E8000008800F4004050B10B480088C5B2002033
:100E900009490880094948550BA003F06BFD70BD56
:100EA0000008014000023000900121420000214270
:100EB00041540D0A000000001400002078010020B9
:100EC00025730D0A000000000D0A257300000000C4
:100ED00070B504460D462146FE4801F07DF8FE48F7
:100EE00005600020FD49C1F89801FD490860012016
:100EF0000860F9490C310860F849C1F88C0170BDEF
:100F000070B500241CE004F1B001C8B20021FFF765
:100F1000DFFF00210846FFF7DBFF00211020FFF76D
:100F2000D7FF002508E0EF4901EBC501085D01216D
:100F3000FFF7CEFF681CC5B2802DF4DB601CC4B285
:100F4000082CE0DB70BD10B500218D20FFF7C0FF3D
:100F500000211420FFF7BCFF0021AF20FFF7B8FFEE
:100F600010BD10B500218D20FFF7B2FF0021102029
:100F7000FFF7AEFF0021AE20FFF7AAFF10BD70B54E
:100F800000240CE0002506E00020D64901EBC50155
:100F90000855681CC5B2802DF6DB601CC4B2082C55
:100FA000F0DBFFF7ADFF70BDF0B5144600267F28DB
:100FB00001DC3F2900DDF0BD0B46CF1701EB577771
:100FC000FF10C7F10707FAB2CF1701EB5777FF10F1
:100FD000A1EBC707FDB2C5F107070123BB40DEB295
:100FE0004CB1C04B03EBC0039B5C3343BD4F07EBDD
:100FF000C007BB5408E0BB4B03EBC0039B5CB3438F
:10100000B84F07EBC007BB5400BFD4E72DE9F0474A
:1010100006460F4690469946DDF820A034460CE07F
:101020003D4606E0524629462046FFF7BDFF681CB4
:10103000C5B24D45F6DD601CC4B24445F0DDFFF796
:101040005FFFBDE8F0872DE9F84F80460F46164652
:101050001C46BA462046E31704EB5373DB102146C7
:101060004FEAE47C04EB5C7C4FEAEC0CA4EBCC0C88
:10107000BCF1000F02D04FF0010C01E04FF0000C6A
:101080006344224604EBD27C4FEA6C0C03FB0CF366
:1010900003F0FF0BA6F12000C6B200254EE00C2C99
:1010A00007D106EB4600904901EB8000405D0090BF
:1010B00013E0102C05D18D4800EB0610405D009028
:1010C0000BE0182C07D106EBC600894901EB800024
:1010D000405D009001E0BDE8F88F4FF0000927E087
:1010E000009800F0800028B1394640460A9AFFF780
:1010F0005BFF09E00A9808B9012000E000200246E1
:1011000039464046FFF750FF00984006000E009019
:10111000781CC7B2A7EB0A00A04205D1574608F1D8
:10112000010000F0FF0806E009F1010000F0FF09EE
:10113000B9F1080FD4DB00BF681CC5B25D45AEDB5A
:1011400000BFC8E710B50246012000E050430B0085
:10115000A1F10104E1B2F9D110BD2DE9FF4F81B039
:10116000074691461E460E9D4FF0000A002439E0C6
:10117000301B401EC1B20A20FFF7E4FFB9FBF0F0BC
:101180000A21B0FBF1F201FB1208BAF1000F16D1EF
:10119000701EA04213DDB8F1000F0ED10120AB4646
:1011A00005EBDB71491001FB04710090C8B22B46BE
:1011B00020220299FFF747FF12E04FF0010A0120B9
:1011C000AB4605EBDB71491001FB04710090C8B21E
:1011D00008F13001CAB22B460299FFF734FF00BF75
:1011E000601CC4B2B442C3DB05B0BDE8F08FF8B5F3
:1011F00006460F4615461C4621E004EBD471491003
:10120000C1F18001B14202DA00263819C7B2C4F137
:101210004000B84204DA002006460746FFF7AFFE5A
:10122000012000902A78234639463046FFF70BFF0D
:10123000204604EBD07106EB6101CEB26D1C28781C
:101240007E2802DC28782028D7DAF8BD08B50121ED
:101250004FF4987001F0C6F84820ADF80000102057
:101260008DF8030003208DF802006946214800F044
:10127000FDFD48211F4800F0A6FEFF20ADF800004C
:101280006946144800F0F2FDFF21124800F09BFE71
:101290004FF46040ADF800006946174800F0E6FDE5
:1012A0004FF46041144800F08EFE01200A490C31D1
:1012B00008600A49C1F88C0100200949091D08602D
:1012C000642000F018FC01200C49C1F8BC01002189
:1012D000AE2015E0001001408C81224200802242A5
:1012E000B801244228060020B86500082C6A0008CE
:1012F0001C7000080014014000200140000024423E
:10130000FFF7E6FD0021D520FFF7E2FD0021502088
:10131000FFF7DEFD0021A820FFF7DAFD00213F20C6
:10132000FFF7D6FD0021D320FFF7D2FD00210846AC
:10133000FFF7CEFD00214020FFF7CAFD00218D20E0
:10134000FFF7C6FD00211420FFF7C2FD0021202079
:10135000FFF7BEFD00210220FFF7BAFD0021A1200A
:10136000FFF7B6FD0021C020FFF7B2FD0021DA2013
:10137000FFF7AEFD00211220FFF7AAFD002181201A
:10138000FFF7A6FD0021EF20FFF7A2FD0021D920E5
:10139000FFF79EFD0021F120FFF79AFD0021DB20E1
:1013A000FFF796FD00213020FFF792FD0021A420D9
:1013B000FFF78EFD0021A620FFF78AFD0021AF2058
:1013C000FFF786FDFFF7DBFD08BD000008B5012132
:1013D000042001F007F80420ADF8000010208DF87B
:1013E000030003208DF8020069463E4800F03EFDF0
:1013F00004213C4800F0E9FD0820ADF800006946F2
:10140000384800F033FD0821364800F0DCFD40F29A
:101410008331354802F016F940F28331324802F048
:1014200013F908BD10B54FF4C8712F4802F00AF93E
:101430004FF448712C4802F007F901202B4908604D
:1014400000202B49C1F88C0110BD10B54FF4487134
:10145000254802F0F9F840F28331234802F0F2F80F
:101460000020224908602249C1F88C0110BD10B546
:1014700040F283311C4802F0E7F84FF4C8711A4873
:1014800002F0E0F80120194908601949C1F88C01FF
:1014900010BD10B54FF42F71134802F0D3F84FF47C
:1014A0002F71114802F0D0F800201049086010494F
:1014B000C1F88C0110BD10B540F283310A4802F02A
:1014C000C1F840F28331084802F0BEF80120074914
:1014D000086000200649C1F88C014FF4FA7000F052
:1014E0000AFB10BD000801400004004088012142B1
:1014F0000000214210B56448006820F47040624941
:1015000008600846006840F00300086000205F495A
:101510000860142000F0EFFA01205D49C1F8800155
:101520001E2000F0C4FA10BD10B500245648006813
:1015300020F47040544908600846006840F00800F4
:10154000086004E0601CC4B2012000F0B0FA4F480B
:101550008038006808B1642CF4DB642C01DB0120C6
:1015600010BD002404E0601CC4B2012000F09FFA0A
:1015700046488038006808B9642CF4DB642C01DB31
:101580000120EDE70020EBE710B5002404E0601C2B
:10159000C4B2012000F08BFA3C488038006808B1E2
:1015A000642CF4DB002404E0601CC4B2012000F0D1
:1015B0007EFA36488038006808B9642CF4DB2820AD
:1015C00000F075FA31488038006808B1012010BD7C
:1015D0000020FCE770B50024002506E06006040E3C
:1015E000FFF7D2FF0443681CC5B2082DF6DB204686
:1015F00070BD08B50121082000F0F4FE0120ADF80F
:10160000000010208DF8030003208DF802006946C9
:101610001D4800F02BFC01211B4800F0D4FCFFF713
:1016200069FFFFF781FF08BD7CB505460E4600BF88
:10163000FFF7DFFF0028FBD1002405E0FFF7CAFF1A
:101640000DF80400601CC4B2052CF7DB9DF8000007
:101650009DF8011008449DF8021008449DF80310FD
:101660000844C0B29DF80410884205D19DF80000DE
:1016700030709DF80200287000207CBD10B505492F
:101680000548FFF7D1FF10BD000C014080812142C9
:1016900000802142170000201600002008B52820F5
:1016A0008DF803000120ADF8000003208DF8020042
:1016B0006946264800F0DAFB0121244800F085FC49
:1016C00028208DF803000220ADF8000003208DF8DB
:1016D000020069461D4800F0C9FB02211B4800F0CA
:1016E00074FC28208DF803000420ADF800000320CE
:1016F0008DF802006946154800F0B8FB0421134834
:1017000000F063FC28208DF803000820ADF80000ED
:1017100003208DF8020069460C4800F0A7FB082161
:101720000A4800F052FC28208DF803001020ADF884
:10173000000003208DF802006946044800F096FB83
:101740001021024800F041FC08BD000000180140D3
:101750001FB501210D2000F045FE10208DF80F006F
:101760000220ADF80C0003208DF80E0003A9B64846
:1017700000F07CFB4020ADF80C0003A9B34800F05A
:1017800075FB4FF48070ADF80C0003A9AF4800F072
:101790006DFB28208DF80F000120ADF80C00032010
:1017A0008DF80E0003A9A84800F060FB8020ADF87A
:1017B0000C0003A9A54800F059FB4FF40070ADF8E8
:1017C0000C0003A9A14800F051FB0121002000F00A
:1017D00063FC0721012000F05FFC0921012000F0DB
:1017E0005BFC012001908DF80A0000208DF80800B4
:1017F00008208DF8090001A801F078FF80200190F1
:1018000001A801F073FF4FF40070019001A801F0EE
:101810006DFF06208DF8000001208DF803000220E6
:101820008DF8010000208DF80200684600F055FA9E
:1018300017208DF8000001208DF8030002208DF89C
:10184000010001208DF80200684600F046FA1720DA
:101850008DF8000001208DF8030002208DF80100B2
:1018600001208DF80200684600F037FA1FBD2DE90F
:10187000F0410A2000F01BF9012001F09DFF002833
:101880003ED00021724801F0D9FE0121704801F0DC
:1018900041FC00BF01216C4800F07BFB0028F9D11E
:1018A00000216B4801F036FC694801F0EAFE4FF474
:1018B000AA7100FB01F4204604F000FD0546002259
:1018C000644B04F0A3FB074604F06EFB624908601A
:1018D00062496148006804F03CFE05D300215E487F
:1018E000006804F063FD04D15D4800685A4908604F
:1018F00003E0594800685A490860012001F06DFF73
:10190000BDE8F0812DE9F0410A2000F0D0F88020F8
:1019100001F052FF00283ED00021524801F08EFE17
:101920000121504801F0F6FB00BF8021474800F03C
:1019300030FB0028F9D100214A4801F0EBFB49486F
:1019400001F09FFE4FF4AA7100FB01F4204604F061
:10195000B5FC054600223F4B04F058FB074604F057
:1019600023FB414908603D493F48006804F0F1FD10
:1019700005D300213C48006804F018FD04D13B4821
:1019800000683949086003E0374800683749086053
:10199000802001F022FF4FF4007001F00DFF0028BD
:1019A00040D00021324801F049FE0121304801F0C9
:1019B000B1FB00BF4FF40071244800F0EAFA0028A0
:1019C000F8D100212A4801F0A5FB294801F059FE71
:1019D0004FF4AA7100FB01F4204604F06FFC0546A9
:1019E00000221C4B04F012FB074604F0DDFA2149EB
:1019F00008601A491F48006804F0ABFD05D30021B8
:101A00001C48006804F0D2FC04D11B480068194946
:101A1000086003E017480068174908604FF4007039
:101A200001F0DBFEBDE8F08170B504460D462946A5
:101A3000204600F0C8FA142000F039F82946204664
:101A400000F0C3FA70BD000000080140000C014026
:101A5000000C0040000069401800002000004843CE
:101A60002400002000080040200000202C0000205E
:101A7000001000401C0000202800002010B56FF06E
:101A8000040000F074F92E4800682E49B0FBF1F014
:101A90002D4908700846007800EB4001C1EBC010EA
:101AA0004FF6FF7101EAC0002849088010BD0146C9
:101AB000254A12784A434FF0E0235A6100229A6186
:101AC0001A46126942F001021A6100BF4FF0E0228B
:101AD000106900F001021AB100F48032002AF5D03A
:101AE0004FF0E022126922F001024FF0E0231A6168
:101AF00000229A6170470146144A12884A434FF007
:101B0000E0235A6100229A611A46126942F00102EA
:101B10001A6100BF4FF0E022106900F001021AB113
:101B200000F48032002AF5D04FF0E022126922F052
:101B300001024FF0E0231A6100229A617047000011
:101B40000000002000127A00300000203200002047
:101B5000014600BF704700BF494A128802F04002A8
:101B6000002AF9D0C2B2464B1B1D1A80704710B52F
:101B700086B00446012144F2040000F033FC4FF427
:101B80000070ADF8140003208DF8160018208DF8B1
:101B9000170005A93B4800F069F94FF48060ADF8E3
:101BA000140004208DF8170005A9364800F05EF9EE
:101BB00025208DF8000003208DF801008DF802002B
:101BC00001208DF80300684600F087F8019400209A
:101BD000ADF80800ADF80A00ADF80C00ADF8100043
:101BE0000C20ADF80E0001A9254800F0A2FC01224E
:101BF00040F22551224800F034FD0121204800F038
:101C000024FD06B010BD10B540F225511C4800F06F
:101C10000DFE10B31A4800F089FDC4B21A480088BE
:101C200000F40040C8B91848008800F4804060B152
:101C30000A2C03D000201449088020E012480088B4
:101C400040F400401049088019E00D2C06D10E48E0
:101C5000008840F480400C49088010E00A48008861
:101C6000C0F30D0009490C5407480088401C064980
:101C7000088008460088C72801DD0020088010BDC4
:101C8000003801400008014038000020280A0020E8
:101C90000948804709480047FEE7FEE7FEE7FEE700
:101CA000FEE7FEE7FEE7FEE7FEE7FEE7044805493C
:101CB000054A064B70470000E7070008310100089D
:101CC000500B002050110020500D0020500D00201E
:101CD00031490143314A1160704770B5002100233A
:101CE0000F22C47804B32D4C246804F4E064C4F5D6
:101CF000E064210AC1F10403CA40447804FA03F104
:101D00008478144021430901254C0678A1550478B4
:101D100004F01F050124AC4005786D11AD0005F1FC
:101D2000E025C5F8004109E0047804F01F0501240E
:101D3000AC401C4D0678761145F8264070BD1A4A15
:101D40000A400243154B1B1F1A60704739B1134AF2
:101D5000121D12680243114B1B1D1A6006E00F4A48
:101D6000121D126882430D4B1B1D1A607047042818
:101D700008D14FF0E021096941F004014FF0E02261
:101D8000116107E04FF0E021096921F004014FF0F3
:101D9000E0221161704700000000FA050CED00E040
:101DA00000E400E080E100E080FFFF1F10B5044682
:101DB000CC48844208D10121042000F02DFB0021F1
:101DC000042000F029FB46E0C748844208D10121E5
:101DD000082000F021FB0021082000F01DFB3AE064
:101DE000C248844208D10121102000F015FB0021D7
:101DF000102000F011FB2EE0BD48844208D10121E3
:101E0000202000F009FB0021202000F005FB22E04B
:101E1000B848844208D10121402000F0FDFA002199
:101E2000402000F0F9FA16E0B348844208D10121BD
:101E3000802000F0F1FA0021802000F0EDFA0AE0A5
:101E4000AE48844207D10121801500F0E5FA002157
:101E5000A01500F0E1FA10BD10B50121084600F010
:101E6000DBFA0021012000F0D7FA10BD2DE9F04186
:101E7000024600250026002000230024002791F8B8
:101E800003C00CF00F0591F803C00CF0100CBCF16E
:101E9000000F03D091F802C04CEA050591F800C08C
:101EA000BCF1000F31D0146800202BE04FF0010C82
:101EB0000CFA00F3B1F800C00CEA03069E4220D1F0
:101EC00083004FF00F0C0CFA03F7BC4305FA03FC38
:101ED0004CEA040491F803C0BCF1280F06D14FF07E
:101EE000010C0CFA00FCC2F814C00AE091F803C01F
:101EF000BCF1480F05D14FF0010C0CFA00FCC2F800
:101F000010C0401C0828D1D31460B1F800C0BCF147
:101F1000FF0F34DD546800202EE000F1080C4FF074
:101F2000010808FA0CF3B1F800C00CEA03069E425F
:101F300021D183004FF00F0C0CFA03F7BC4305FAD4
:101F400003FC4CEA040491F803C0BCF1280F05D14E
:101F500000F1080C08FA0CF8C2F8148091F803C0DC
:101F6000BCF1480F07D100F1080C4FF0010808FA46
:101F70000CF8C2F81080401C0828CED35460BDE88D
:101F8000F0814FF6FF710180022181700421C17040
:101F900070470246002093680B400BB1012000E01F
:101FA000002070470146886880B2704702460020D2
:101FB000D3680B400BB1012000E0002070470146C0
:101FC000C86880B2704701617047416170470AB1CB
:101FD000016100E041617047C16070474FF4803299
:101FE0000A43826181618261826982697047024627
:101FF0000020434B18684FF68073184040EA0210E7
:1020000008433F4B186070473E49C8617047F0B5C0
:102010000A46002300240021002500F00046B6F106
:10202000004F02D1364EF16901E0354E7168C0F3C0
:10203000034583B200F44016B6F5401F08D121F0E5
:1020400070612F4E766826F070662D4F7E6012E02C
:1020500000F48016B6F5801F06D1032606FA05F4B3
:10206000A14341F0706106E0460D360103FA06F621
:10207000B14341F0706122B1460D360103FA06F614
:10208000314300F00046B6F1004F02D11C4EF16121
:1020900001E01B4E7160F0BD30B500228B071C0FB4
:1020A0000F2303FA04F2164B08338C1053F8243034
:1020B0009343134C08348D1044F8253023468C107C
:1020C00053F824308C07240F00FA04F423430C4CFB
:1020D00008348D1044F8253030BD0A49DC310860E1
:1020E0007047000000080140000C01400010014052
:1020F0000014014000180140001C01400020014074
:102100000000014000002042DF48006840F001006C
:10211000DD49086008464068DC490840DA49486003
:1021200008460068DA490840D74908600846006850
:1021300020F4802008600846406820F4FE004860D3
:102140004FF41F0088607047CF49096821F480313F
:10215000CD4A11601146096821F480211160B0F563
:10216000803F03D0B0F5802F0ED106E0C649096844
:1021700041F48031C44A116007E0C349096841F461
:10218000A021C14A116000E000BF00BF704710B538
:1021900001460022002300204A11012A02D1BA4C34
:1021A000236806E0022A02D1B74C236A01E0B64C4C
:1021B000636A01F01F02012494401C400CB101200D
:1021C00000E0002010BD38B500200090002400255C
:1021D00000BF3120FFF7DBFF05460098401C009050
:1021E0000098B0F5A06F01D0002DF2D03120FFF79C
:1021F000CEFF08B1012400E00024204638BD01468E
:102200000020A14A106820F0F80040EAC1001060E8
:102210007047A04908607047024600209A4B5868F2
:1022200020F47C1042EA01031843974B5860704732
:1022300098490866704701460020934A506820F08C
:1022400003000843506070478F48406800F00C005E
:102250007047014600208C4A506820F0F000084387
:102260005060704701460020874A506820F4E060C3
:1022700008435060704701460020834A506820F4AC
:10228000605040EAC1005060704729B17E4A527ADE
:1022900002437D4B5A7204E07B4A527A82437A4B66
:1022A0005A7270477B49D831086070470146002058
:1022B000754A506820F44040084350607047002140
:1022C000714A20321170704A82F82010012802D021
:1022D00004280AD104E001216B4A2032117005E084
:1022E0000521694A2032117000E000BF00BF70472D
:1022F0006949086070476449096A0143624A11628A
:102300007047654944390860704730B500210022A4
:10231000002400235C4D6D6805F00C0121B10429F7
:1023200005D0082923D105E05C4D056022E05B4D16
:1023300005601FE0544D6D6805F47012524D6D68D4
:1023400005F48034022505EB92421CB9544D5543E7
:1023500005600BE04C4D6D6805F400351DB1504D26
:102360005543056002E04D4D5543056002E04B4D7D
:10237000056000BF00BF444D6D6805F0F00109091C
:10238000484D6B5C0568DD4045603F4D6D6805F468
:10239000E061090A434D6B5C4568DD4085603A4D5C
:1023A0006D6805F46051C90A3E4D6B5C4568DD40BF
:1023B000C560354D6D6805F44041890B3A4D6B5C45
:1023C000C568B5FBF3F5056130BD29B12E4A5269E8
:1023D00002432D4B5A6104E02B4A526982432A4B37
:1023E0005A61704729B1284A92690243264B9A6183
:1023F00004E0254A92698243234B9A61704729B1D0
:10240000214AD2690243204BDA6104E01E4AD269B4
:1024100082431D4BDA61704729B11B4AD2680243DF
:10242000194BDA6004E0184AD2688243164BDA602E
:10243000704729B1144A12690243134B1A6104E030
:10244000114A12698243104B1A6170471249403990
:10245000086070470F49C86470470B49C8717047DE
:102460000948406A40F08070074948627047014659
:102470000020054A92680A400AB1012000E00020CD
:102480007047014988727047001002400000FFF851
:10249000FFFFF6FE000042428004424200127A0032
:1024A00000093D003A0000204A00002010B5044613
:1024B000FB48844209D101218803FFF7ADFF0021C9
:1024C0004FF48040FFF7A8FF32E0F648844209D17C
:1024D00001214804FFF7ADFF00214FF40030FFF762
:1024E000A8FF25E0F048844209D101218804FFF7C4
:1024F000A0FF00214FF48020FFF79BFF18E0EB487E
:10250000844209D10121C804FFF793FF00214FF451
:102510000020FFF78EFF0BE0E548844208D101213F
:102520000805FFF786FF00214FF48010FFF781FFB9
:1025300010BD2DE9F04786B005460E460024A246A0
:1025400000BFA1460027B08900B100BF2F462C8AEA
:102550004CF6FF700440F08804432C82AC894EF6A0
:10256000F3100440B088318908437189084304435B
:10257000AC81AC8A4FF6FF400440B0890443AC8282
:1025800001A8FFF7C2FEC648874202D1DDF810A0BD
:1025900001E0DDF80CA0A88900F4004040B10AEB8E
:1025A000CA0000EB0A1031684900B0FBF1F807E0FF
:1025B0000AEBCA0000EB0A1031688900B0FBF1F8A1
:1025C0006420B8FBF0F004012009642101FB1089AC
:1025D000A88900F4004040B1322000EBC900B0FBF4
:1025E000F1F000F00700044308E0322000EB09108E
:1025F0006421B0FBF1F000F00F0004432C8106B021
:10260000BDE8F0874FF41651016000218180C18040
:1026100001810C21418100218181704710B5024662
:102620000020108A4FF2FF0318400B884C88234388
:102630008C882343CC8823431843108210BD00218B
:10264000018041808180C180704721B1828942F43C
:102650000052828104E082894DF6FF731A40828124
:102660007047F0B50346002400260025002040F600
:102670006A17B94200D100BF1846C1F3421401F0F5
:102680001F06012707FA06F5012C01D10C3004E0E2
:10269000022C01D1103000E014301AB107682F432A
:1026A000076002E00768AF430760F0BD1AB1838A94
:1026B0000B43838202E0838A8B4383827047028AC2
:1026C0004FF6F0731A400282028A0A430282704770
:1026D00082894FF2FF731A40828182890A43828184
:1026E000704721B1828942F00202828104E082892E
:1026F0004FF6FD731A4082817047028A4FF6DF73EE
:102700001A400282028A0A430282704721B1028A79
:1027100042F48042028204E0028A4BF6FF731A40C0
:1027200002827047C1F308028280704701468888A0
:10273000C0F308007047818941F001018181704731
:10274000028BD2B20283028B42EA012202837047DB
:10275000028B02F47F420283028B0A43028370479A
:1027600021B1828A42F02002828204E0828A4FF6FE
:10277000DF731A408282704721B1828A42F01002D0
:10278000828204E0828A4FF6EF731A408282704799
:1027900021B1828A42F00802828204E0828A4FF6E6
:1027A000F7731A408282704721B1828942F4004255
:1027B000828103E08289C2F30E028281704721B1D7
:1027C000828A42F40062828204E0828A4FF2FF73BE
:1027D0001A4082827047828A4FF6FB731A408282C7
:1027E000828A0A438282704721B1828A42F00202C1
:1027F000828204E0828A4FF6FD731A40828270471B
:1028000002460020B1F5007F00D100BF13880B40C5
:102810000BB1012000E00020704701F40072B2F516
:10282000007F00D100BFCA430280704770B50246E6
:10283000002400230025002040F66A16B14200D192
:1028400000BFC1F3421501F01F03012606FA03F38E
:10285000012D02D19689334006E0022D02D1168A5D
:10286000334001E0968A33400C12012606FA04F444
:102870001688344013B10CB1012000E0002070BD77
:1028800010B50022002340F66A14A14200D100BF17
:102890000A1201249440A3B2DC43048010BD00005E
:1028A000003801400044004000480040004C004017
:1028B0000050004010B50446FE48844208D1012172
:1028C000C014FFF7A9FD0021E014FFF7A5FDC4E047
:1028D000B4F1804F08D101210846FFF7AAFD00217D
:1028E0000120FFF7A6FDB8E0F348844208D101219A
:1028F0000220FFF79EFD00210220FFF79AFDACE0C9
:10290000EE48844208D101210420FFF792FD002106
:102910000420FFF78EFDA0E0E948844208D10121A0
:102920000820FFF786FD00210820FFF782FD94E0D4
:10293000E448844208D101211020FFF77AFD0021EC
:102940001020FFF776FD88E0DF48844208D101219E
:102950002020FFF76EFD00212020FFF76AFD7CE0BC
:10296000DA48844208D101214014FFF755FD0021C7
:102970006014FFF751FD70E0D548844209D1012170
:10298000C804FFF749FD00214FF40020FFF744FD84
:1029900063E0D048844209D101210805FFF73CFDDE
:1029A00000214FF48010FFF737FD56E0CA488442FB
:1029B00009D101214805FFF72FFD00214FF4001038
:1029C000FFF72AFD49E0C548844208D10121402093
:1029D000FFF72FFD00214020FFF72BFD3DE0C04811
:1029E000844208D101218020FFF723FD00218020AF
:1029F000FFF71FFD31E0BB48844208D1012180155B
:102A0000FFF717FD0021A015FFF713FD25E0B648DD
:102A1000844209D101210804FFF7FEFC00214FF494
:102A20008030FFF7F9FC18E0B048844209D1012159
:102A30004804FFF7F1FC00214FF40030FFF7ECFCF5
:102A40000BE0AB48844208D101218804FFF7E4FC85
:102A500000214FF48020FFF7DFFC10BD0022028828
:102A6000944B98420ED0994B98420BD0B0F1804FC6
:102A700008D0914B984205D0904B984202D0904B91
:102A8000984204D14FF68F731A404B881A438D4BEE
:102A9000984207D08C4B984204D04FF6FF431A401F
:102AA000CB881A4302808B8883850B880385814BF2
:102AB00098420BD0854B984208D08B4B984205D05A
:102AC0008A4B984202D08A4B984201D10B7A0386F6
:102AD00001238382704770B5002400220023058CF7
:102AE0004FF6FE7635400584028C8388048B4FF6C2
:102AF0008F752C40B51E2C400D882C43751E2A4026
:102B00000D892A434D882A436A4DA8420BD06F4D48
:102B1000A84208D0744DA84205D0744DA84202D0F6
:102B2000734DA84213D14FF6F7752A404D892A43B9
:102B30004FF6FB752A408D882A434FF6FF652B40E0
:102B40004FF6FF552B408D892B43CD892B43838036
:102B50000483CD888586028470BD70B50024002270
:102B60000023058C4FF6EF7635400584028C838870
:102B7000048B48F6FF752C404FF6FF452C400D881E
:102B80004FF6FF7606EA05252C434FF6DF752A40FF
:102B90000D8906EA05152A434D8806EA05152A43DC
:102BA000444DA84202D0494DA8421DD14FF67F7531
:102BB0002A404D894FF6FF7606EA05152A434FF65F
:102BC000BF752A408D8806EA05152A434FF6FF3562
:102BD0002B404FF2FF752B408D8906EA85052B436C
:102BE000CD8906EA85052B4383800483CD8805873C
:102BF000028470BD70B5002400220023058C4FF6BE
:102C0000FF6635400584028C8388848B4FF68F7570
:102C10002C404FF6FC752C400D882C434FF6FF5589
:102C20002A400D894FF6FF7606EA05252A434D888E
:102C300006EA05252A431F4DA84202D0234DA8428B
:102C40001DD14FF2FF752A404D894FF6FF7606EAF7
:102C500005252A434FF6FF352A408D8806EA0525CB
:102C60002A434EF6FF752B404DF6FF752B408D899C
:102C700006EA05152B43CD8906EA05152B4383800B
:102C80008483CD888587028470BD70B500220023BF
:102C90000024058C4EF6FF7635400584038C84882D
:102CA000828B48F6FF752A404FF6FF452A400D8873
:102CB00020E00000002C014000040040000800401B
:102CC000000C00400010004000140040003401409F
:102CD000004C0140005001400054014000180040E9
:102CE000001C004000200040004001400044014022
:102CF000004801404FF6FF7606EA05252A434DF6C7
:102D0000FF752B400D8906EA05352B434D8806EAF1
:102D100005352B43FA4DA84202D0FA4DA84208D1FE
:102D20004BF6FF752C408D894FF6FF7606EA851528
:102D30002C4384808283CD88A0F84050038470BDEA
:102D4000828B4FF2FF331A408283828B4FF6FF73E0
:102D500003EA01231A4382837047F0B50C461546F7
:102D6000002200210026078C4EF6FF7C07EA0C07A4
:102D70000784828B018C4FF6FF7707EA043640F612
:102D8000FF473A404FF6FF7707EA05273A434FF6E9
:102D9000FF7707EA03373A43D94FB8420ED0D94FED
:102DA000B8420BD0B0F1804F08D0D74FB84205D011
:102DB000D64FB84202D0D64FB84206D14DF6FF7773
:102DC000394046F48057394305E047F6FF5739400C
:102DD00044F48057394382830184F0BD828B4FF6DF
:102DE000F3731A408283828B0A4382837047F0B563
:102DF0000C461546002200210026078C4FF6FF6C7A
:102E000007EA0C070784828B018C4FF6FF7707EAED
:102E100004264FF60C773A404FF6FF7707EA031780
:102E20002F433A43B64FB8420ED0B64FB8420BD0FC
:102E3000B0F1804F08D0B44FB84205D0B34FB8427C
:102E400002D0B34FB84206D14FF6FF57394046F48F
:102E50008077394305E04FF2FF57394044F48077DB
:102E6000394382830184F0BD028B4FF2FF331A4055
:102E70000283028B4FF6FF7303EA01231A43028396
:102E80007047F0B50C461546002200210026078C3D
:102E90004FF6EF7C07EA0C070784028B018C4FF694
:102EA000FF7707EA041640F6FF473A404FF6FF77F0
:102EB00007EA03373A434FF6FF7707EA05273A4315
:102EC0008F4FB8420ED08F4FB8420BD0B0F1804F29
:102ED00008D08D4FB84205D08C4FB84202D08C4FED
:102EE000B84206D14FF6DF77394046F01007394334
:102EF00005E04FF65F77394044F01007394302830D
:102F00000184F0BD028B4FF6F3731A400283028BEB
:102F10000A4302837047F0B50C4615460022002193
:102F2000068C4FF6FE773E400684028B018C4FF6EE
:102F30000C7632407E1C06EA03162E433243704E56
:102F4000B0420ED06F4EB0420BD0B0F1804F08D0DF
:102F50006D4EB04205D06D4EB04202D06C4EB042C4
:102F600006D14FF6FD76314044F00106314305E0CD
:102F70004FF6F576314044F0010631430283018477
:102F8000F0BD70B505460C465D4885420ED05D48E3
:102F900085420BD0B5F1804F08D05B48854205D003
:102FA0005A48854202D05A48854200D100E000BF0D
:102FB000208850B92389A28861882846FFF7ABFF93
:102FC000E1882846FFF79EFF25E0208804280AD1E3
:102FD0002389A28861882846FFF753FFE1882846A5
:102FE000FFF742FF17E0208808280AD12389A2882A
:102FF00061882846FFF7FBFEE1882846FFF7EEFED2
:1030000009E02389A28861882846FFF7A6FEE188A7
:103010002846FFF795FE70BD2DE9F04105460C46A8
:1030200000260127608808B9022600E00026A08853
:10303000012801D1022700E001272088A0B92389B7
:10304000A28861882846FFF766FFE1882846FFF7D7
:1030500059FF23893A4631462846FFF712FFE18897
:103060002846FFF701FF13E02389A28861882846DC
:10307000FFF707FFE1882846FFF7F6FE23893A4667
:1030800031462846FFF747FFE1882846FFF73AFF19
:10309000BDE8F0810A884B881A438B881A43CB8895
:1030A0001A430B891A434B891A438B891A43A0F898
:1030B000442070474FF6FF71818000210180C1805C
:1030C0004180017270470021018041808180C18070
:1030D000018141818181C18170470021018041804E
:1030E000012181800021C180018170470021018080
:1030F00041808180C18001814181818170470000D0
:10310000002C014000340140000400400008004051
:10311000000C004021B1028842F00102028004E06C
:1031200002884FF6FE731A400280704731B1B0F842
:10313000442042F40042A0F8442005E0B0F84420C6
:10314000C2F30E02A0F8442070471AB183890B43E2
:10315000838102E083898B4383817047818270473A
:1031600041EA0203A0F8483070471AB183890B4343
:10317000838102E083898B438381704701894FF605
:10318000F8721140018170470A46002101894FF60B
:103190008F73194011430181704730B504460D46C5
:1031A00029462046FFF7F0FF208940F007002081E4
:1031B00030BD2DE9F04104460D4616461F46602DF0
:1031C00006D13B46012231462046FFF75AFE05E074
:1031D0003B46012231462046FFF79DFE2946204608
:1031E000FFF7D2FF208940F007002081BDE8F08181
:1031F00030B50C4600210189C9B24FF6FF7505EACA
:103200000325154325432943018130BD2DE9F041B4
:1032100005460E4617469846002443463A46314630
:103220002846FFF7E5FF2C894FF6F870044044F07C
:1032300007044FF68F70044044F070042C81BDE801
:10324000F081F0B504460D4616461F463B46324611
:1032500029462046FFF7CCFF208940F4804020819A
:10326000F0BD0185828270470A46002101884FF631
:103270008F731940114301807047F0B50C46154615
:103280001E460021002200230189028B038C4FF689
:10329000F877394021434FF6FC473A4040F2011796
:1032A0003A434FF6DD773B404FF6FF7707EA0617C4
:1032B0002F433B43018102830384F0BD0A46002172
:1032C000018B4FF68F7319401143018370470A46F3
:1032D0000021018B48F6FF7319404FF6FF7303EA94
:1032E00002231943018370470A460021818B4FF660
:1032F0008F7319401143818370470A460021818BE7
:1033000048F6FF7319404FF6FF7303EA022319438F
:103310008183704721B1028842F08002028004E07C
:1033200002884FF67F731A400280704721B182886D
:1033300042F00402828004E082884FF6FB731A4058
:103340008280704721B1828842F00802828004E0C6
:1033500082884FF6F7731A408280704721B18288C5
:1033600042F00102828004E082884FF6FE731A4028
:10337000828070470A460021018B4FF6F77319408F
:103380001143018370470A460021018B4FF2FF73FE
:1033900019404FF6FF7303EA022319430183704774
:1033A0000A460021818B4FF6F77319401143818340
:1033B00070470A460021818B4FF2FF7319404FF688
:1033C000FF7303EA02231943818370470A460021F1
:1033D000018B4FF6FB7319401143018370470A4676
:1033E0000021018B4FF6FF3319404FF6FF7303EABC
:1033F00002231943018370470A460021818B4FF64F
:10340000FB7319401143818370470A460021818B69
:103410004FF6FF3319404FF6FF7303EA02231943B7
:10342000818370470A460021018B4FF67F73194054
:103430001143018370470A460021018BC1F30E013D
:103440004FF6FF7303EA02231943018370470A46CC
:103450000021818B4FF67F731940114381837047A0
:103460000A460021818BC1F30E014FF6FF7303EA78
:1034700002231943818370470A460021018C4FF6CD
:10348000FD7319401143018470470A460021018CE5
:103490004FF6F77319401143018470470A46002123
:1034A000018C4FF6DF7319404FF6FF7303EA0213E6
:1034B0001943018470470A460021018C4FF67F733F
:1034C00019404FF6FF7303EA021319430184704752
:1034D0000A460021018C4FF6FF5319404FF6FF7347
:1034E00003EA02231943018470470A460021018C34
:1034F0004FF2FF7319404FF6FF7303EA022319439B
:10350000018470470A460021018C4DF6FF73194073
:103510004FF6FF7303EA023319430184704730B555
:10352000002301248C40A3B2048C9C430484048CAB
:1035300002FA01F5ADB22C43048430BD30B500234E
:1035400004248C40A3B2048C9C430484048C02FAAF
:1035500001F5ADB22C43048430BD70B503460020A4
:1035600000241846183001258D40ACB21D8CA543AF
:103570001D8409B1082909D100EB6100056825F017
:10358000700505600568154305600EE00D1FC5F365
:103590004E052844056825F4E045056005684FF6AA
:1035A000FF7606EA02263543056070BD21B1028828
:1035B00042F00202028004E002884FF6FD731A40D6
:1035C0000280704721B1028842F00402028004E0C8
:1035D00002884FF6FB731A400280704721B182883F
:1035E00042F08002828004E082884FF67F731A40A6
:1035F0008280704702884FF6F7731A400280028873
:103600000A430280704782884FF68F731A40828087
:1036100082880A438280704702894FF6F8731A4005
:10362000028102890A430281704702894FF67F7343
:103630001A40028102890A430281704781847047DF
:103640008185704781867047018770478187704701
:10365000A0F84010704702884FF6FF431A400280DE
:1036600002880A43028070470146888E70470146EF
:10367000088F70470146888F70470146B1F84000B7
:1036800070470146888C70470146088D7047024696
:103690000020138A0B400BB1012000E0002070478E
:1036A000CA430282704730B502460020002300243E
:1036B000158A05EA0103958905EA010413B10CB1E5
:1036C000012000E0002030BDCA43028270470000A4
:1036D000002044490860091D0860091D0860091D93
:1036E000086041483F4914310860704700213D4956
:1036F0008279002A3AD00A46126803689A430B4638
:103700001A600A1D126803689A430B1D1A60027939
:1037100011440A6803681A430A60324A0832126880
:1037200003689A432F4B08331A601A1D1268036806
:103730009A432C4B0C331A604279102A0ED11A1F6F
:10374000126803681A43274B08331A601A1D12685F
:1037500003681A43234B0C331A600DE02149427968
:1037600011440A6803681A430A6005E002791144AB
:103770000A6803689A430A6070470021016001717A
:103780000C2141710021817170471649103109687F
:103790000143144A10321160704701460020114A5B
:1037A000143212680A400AB1012000E0002070477C
:1037B0000C49143108607047014600200022094B73
:1037C0001B6803EA0102074B14331B680B4013B15B
:1037D0000AB1012000E0002070470249143108605E
:1037E0007047000000040140FFFF0F0010B58CB0CF
:1037F00004461E230BAA03A9204600F0ABFE00904E
:10380000009810B101200CB010BD9DF82C000444AC
:1038100000200B900EE040489DF82C2050F822101C
:1038200003A800F0FFFD00B908E09DF82C00401C43
:10383000C0B20B909DF82C000728ECD300BF9DF878
:103840002C00072863D2DFE800F004053C5E6564C5
:10385000630000BF31A001F08DF831A001F08AF8BB
:103860003FA001F087F84EA001F084F85CA001F0C1
:1038700081F86BA001F07EF879A001F07BF886A0BA
:1038800001F078F88BA001F075F890A001F072F8C3
:1038900094A001F06FF899A001F06CF89EA001F0DF
:1038A00069F8A4A001F066F8B0A001F063F8BDA02B
:1038B00001F060F8C8A001F05DF8D4A001F05AF85A
:1038C0009AE216A001F056F8E0A001F053F80020AB
:1038D0000B900EE0ED4800689DF82C2000EBC20034
:1038E0004168EBA001F046F89DF82C00401CC0B2E6
:1038F0000B90E648007D9DF82C108842EADC07A07A
:1039000001F038F878E205A001F034F8C4E171E282
:1039100045E219E2ECE10000500000200D0A000031
:103920002D2D2D2D2D2D2D2D2D2D2D2D2D2D2D2DC7
:103930002D2D2D2D2D2D2D2D55534D4152542056CD
:10394000332E312D2D2D2D2D2D2D2D2D2D2D2D2D9C
:103950002D2D2D2D2D2D2D2D2D2D2D200D0A000041
:103960002020202055534D415254CAC7D3C9414C41
:1039700049454E54454BBFAAB7A2B5C4D2BBB8F611
:10398000C1E9C7C9B5C4B4AEBFDAB5F7CAD4BBA5DF
:10399000BDBBD7E9BCFE2CCDA8B9FD200D0A0000A7
:1039A000CBFC2CC4E3BFC9D2D4CDA8B9FDB4AEBF03
:1039B000DAD6FACAD6B5F7D3C3B3CCD0F2C0EFC3C8
:1039C000E6B5C4C8CEBACEBAAFCAFD2CB2A2D6B440
:1039D000D0D02ED2F2B4CB2CC4E3BFC90D0A000064
:1039E000D2D4CBE6D2E2B8FCB8C4BAAFCAFDB5C4F3
:1039F000CAE4C8EBB2CECAFD28D6A7B3D6CAFDD753
:103A0000D62831302F3136BDF8D6C629A1A2D7D657
:103A1000B7FBB4AEA1A2BAAFCAFDC8EB0D0A000055
:103A2000BFDAB5D8D6B7B5C8D7F7CEAAB2CECAFDD9
:103A3000292CB5A5B8F6BAAFCAFDD7EEB6E0D6A721
:103A4000B3D63130B8F6CAE4C8EBB2CECAFD2CB258
:103A5000A2D6A7B3D6BAAFCAFDB7B5200D0A0000EB
:103A6000BBD8D6B5CFD4CABE2ED0C2D4F6B2CECA39
:103A7000FDCFD4CABEBDF8D6C6C9E8D6C3B9A6C460
:103A8000DC2CD0C2D4F6BDF8D6C6D7AABBBBB9A62B
:103A9000C4DC2E0D0A000000BCBCCAF5D6A7B3D604
:103AA0003A7777772E6F70656E6564762E636F6DEB
:103AB0000D0A000055534D415254D3D037B8F6CFBC
:103AC000B5CDB3C3FCC1EE3A0D0A00003F3A202049
:103AD00020202020BBF1C8A1B0EFD6FAD0C5CFA2DC
:103AE0000D0A000068656C703A202020BBF1C8A167
:103AF000B0EFD6FAD0C5CFA20D0A00006C6973747E
:103B00003A202020BFC9D3C3B5C4BAAFCAFDC1D0C3
:103B1000B1ED0D0A0A00000069643A20202020203F
:103B2000BFC9D3C3BAAFCAFDB5C44944C1D0B1ED12
:103B30000D0A0A006865783A20202020B2CECAFD1E
:103B40003136BDF8D6C6CFD4CABE2CBAF3B8FABF48
:103B5000D5B8F12BCAFDD7D6BCB4D6B4D0D0BDF8F9
:103B6000D6C6D7AABBBB0D0A0A0000006465633A3B
:103B700020202020B2CECAFD3130BDF8D6C6CFD429
:103B8000CABE2CBAF3B8FABFD5B8F12BCAFDD7D646
:103B9000BCB4D6B4D0D0BDF8D6C6D7AABBBB0D0A2C
:103BA0000A00000072756E74696D653A312CBFAA07
:103BB000C6F4BAAFCAFDD4CBD0D0BCC6CAB13B3074
:103BC0002CB9D8B1D5BAAFCAFDD4CBD0D0BCC6CAF7
:103BD000B13B0D0A0A000000C7EBB0B4D5D5B3CC99
:103BE000D0F2B1E0D0B4B8F1CABDCAE4C8EBBAAF04
:103BF000CAFDC3FBBCB0B2CECAFDB2A2D2D4BBD800
:103C0000B3B5BCFCBDE1CAF82E0D0A002D2D2D2D3B
:103C10002D2D2D2D2D2D2D2D2D2D2D2D2D2D2D2DD4
:103C20002D2D2D2D2D2D414C49454E54454B2D2DDF
:103C30002D2D2D2D2D2D2D2D2D2D2D2D2D2D2D2DB4
:103C40002D2D2D2D2D2D2D200D0A00002D2D2D2D4E
:103C50002D2D2D2D2D2D2D2D2D2D2D2D2D2D2D2D94
:103C60002D2D2D2D2DBAAFCAFDC7E5B5A52D2D2DB6
:103C70002D2D2D2D2D2D2D2D2D2D2D2D2D2D2D2D74
:103C80002D2D2D2D2D2D2D2D200D0A0084000020F1
:103C900025730D0A00000000EFA000F06BFE00206D
:103CA0000B901AE0FC4909689DF82C2001EBC20139
:103CB00001AB02AA486803A900F072FCF64800684C
:103CC0009DF82C1050F8312003A9F4A000F052FE0A
:103CD0009DF82C00401CC0B20B90EF48007D9DF871
:103CE0002C108842DEDCAFF2CC3000F043FE83E0E3
:103CF000AFF2D83000F03EFE0BAA03A9204600F038
:103D00002BFD9DF82C00C8B9694603A800F0BDFB47
:103D10000B909DF82C0020B9E5A0009900F02AFE38
:103D20000EE09DF82C00042801D002206BE5E3A0F2
:103D300000F020FE0120D849C87501E0022062E5AC
:103D4000DDA000F017FE57E0DBA000F013FE0BAA89
:103D500003A9204600F000FD9DF82C00C8B9694673
:103D600003A800F092FB0B909DF82C0020B9D8A07E
:103D7000009900F0FFFD0EE09DF82C00042801D012
:103D8000022040E5D5A000F0F5FD0020C249C8752D
:103D900001E0022037E5C8A000F0ECFD2CE0C6A051
:103DA00000F0E8FD0BAA03A9204600F0D5FC9DF821
:103DB0002C00C8B9694603A800F067FB0B909DF87A
:103DC0002C0078B9B449009881F8EC00084690F8C6
:103DD000EC0018B1C6A000F0CDFD07E0CBA000F0CC
:103DE000C9FD03E002200EE502200CE5B2A000F0C0
:103DF000C1FD01E0012006E500BF002003E510B58C
:103E00000121C948FFF74CFC4FF6FF71C648FFF788
:103E100017FC0021C448FFF711FC00209E49C1F89F
:103E2000F00010BD10B50121BF48FFF730FC01289C
:103E300008D19948D0F8F0004FF6FF710844964930
:103E4000C1F8F000B848FFF71CFC9349D1F8F01016
:103E500008449149C1F8F0000846D0F8F00010BDC0
:103E600010B50121B048FFF71EFC01280AD18A498C
:103E7000086980470021AC48FFF7E0FB6421AA48AD
:103E8000FFF7DEFB0121A848FFF71EFC10BD7FB540
:103E900005460C4601210420FEF7B1FAADF80850A2
:103EA000ADF804400020ADF80A00ADF8060001A905
:103EB0009D48FEF7D3FD012241219B48FFF745F9BC
:103EC0001E208DF8000003208DF801008DF80200FF
:103ED00001208DF803006846FDF7FFFE012192489E
:103EE000FFF718F97FBD10B5044604EBC40000EBE2
:103EF00004100122C2EB800081B24FF47A70FFF708
:103F0000C6FF01206449C87510BD30B595B005469F
:103F100013AB12AA09A9284600F042FB044614B1CB
:103F2000204615B030BD0020149026E05A4909689B
:103F30009DF8502001EBC20113AB11AA486801A9FA
:103F400000F02EFB04460CB12046EAE709A901A8BF
:103F500000F068FA60B99DF844009DF84810884266
:103F600001DD0220DDE79DF850004B4988750AE02D
:103F70009DF85000401CC0B214904748007D9DF849
:103F800050108842D2DC00BF4348007D9DF850109D
:103F9000884201D10420C4E714A9284600F04DFC52
:103FA00004460CB12046BCE79DF850003A494875DC
:103FB0000020B6E72DE9F0419AB03748847D007DB6
:103FC000A04202DC1AB0BDE8F0813349096801EB78
:103FD000C40106AB07AA486808A900F0E1FA08A9DD
:103FE00052A000F0C7FC0026BAE02B48008B01214C
:103FF000B1400840D8B122214EA000F0BBFC3046B1
:1040000000F00EFC24492431471839464AA000F03C
:10401000B1FC222147A000F0ADFC304600F000FCCE
:104020001D492431084410A941F826008EE030468D
:1040300000F0F6FB18492431085810A941F8260071
:104040001548C07D30B910A850F826103BA000F0EC
:1040500091FC7BE074E000002D2D2D2D2D2D2D2DBC
:104060002D2D2D2D2D2D2D2D2D2D2D2D2D2D2D2D80
:104070002DBAAFCAFD204944202D2D2D2D2D2D2DDB
:104080002D2D2D2D2D2D2D2D2D2D2D2D2D2D2D2D60
:104090002D2D2D2D200D0A00840000202573206970
:1040A000642069733A0D0A3058253038580D0A00DB
:1040B0004845583A305825580D0A00003136BDF8A9
:1040C000D6C6B2CECAFDCFD4CABE210D0A000000AA
:1040D0004445433A256C750D0A0000003130BDF8A7
:1040E000D6C6B2CECAFDCFD4CABE210D0A0000008A
:1040F00052756E2054696D652043616C63756C6107
:1041000074696F6E204F4E0D0A00000052756E20CC
:1041100054696D652043616C63756C6174696F6E81
:10412000204F46460D0A0000000800400D0A257386
:10413000280000002563000025730000256C750031
:1041400010A850F8261095A000F014FC9DF81C0053
:10415000401EB04202D093A000F00CFC701CC6B20E
:104160009DF81C008642FFF640AF8FA000F002FCD5
:10417000FFF745FE8D48407D0B280DD2DFE800F0AB
:10418000060D151E27323F4E5F728700874909686A
:1041900051F834008047054690E0844A126852F88E
:1041A000341010988847054688E0804B1B6853F808
:1041B0003420DDE91001904705467FE07B4F3F68E2
:1041C00057F8343010A807C89847054676E0DFF85E
:1041D000DCC1DCF800C05CF8347010A80FC8B84728
:1041E00005466BE01498DFF8C4C10090DCF800C00D
:1041F0005CF8347010A80FC8B84705465EE0DDE9EA
:104200001401DFF8A8C1CDE90001DCF800C05CF8BA
:10421000347010A80FC8B84705464FE0DDE9141206
:104220001698DFF888C1CDE900120290DCF800C0D2
:104230005CF8347010A80FC8B84705463EE0DDE9C9
:104240001423DDE91610DFF864C1CDE90023CDE9C0
:104250000210DCF800C05CF8347010A80FC8B84732
:1042600005462BE0DDE91523DDE91710CDE9012333
:10427000CDE903101498DFF834C10090DCF800C0D9
:104280005CF8347010A80FC8B847054616E0DDE9A1
:104290001623DDE91810CDE90223CDE90410DDE98C
:1042A0001401DFF808C1CDE90001DCF800C05CF8BA
:1042B000347010A80FC8B847054600BF00BFFFF70D
:1042C000B1FD9DF8180001280CD13848C07D20B9F7
:1042D000294637A000F04EFB07E0294636A000F043
:1042E00049FB02E033A000F045FB304890F8EC00B9
:1042F00088B12E48D0F8F0000A21B0FBF1F201FBA2
:1043000012072A48D0F8F000B0FBF1F83A464146CF
:104310002CA000F02FFB00BF54E670B53148008898
:1043200000F40040002833D02E48057800202E49A4
:1043300048551E4881682C48884704461CB91B49CB
:10434000C868804721E02848FFF750FA0546012D4C
:1043500000D02C46CCB1012C06D0022C08D0032C66
:104360000AD0042C10D10BE020A000F003FB0BE0DE
:1043700021A000F0FFFA07E022A000F0FBFA03E022
:1043800023A000F0F7FA00BF00BF00201549088005
:1043900070BD014608687047016070473058255865
:1043A000000000002C000000290000008400002014
:1043B0003D256C753B0D0A003D305825583B0D0AD4
:1043C0000000000046756E6374696F6E2052756E52
:1043D0002054696D653A25642E2531646D730D0A8C
:1043E0000000000038000020280A0020BAAFCAFDF3
:1043F000B4EDCEF3210D0A00B2CECAFDB4EDCEF37A
:10440000210D0A00B2CECAFDCCABB6E0210D0A00E8
:10441000CEB4D5D2B5BDC6A5C5E4B5C4BAAFCAFD44
:10442000210D0A0002460AE010780B78984201D06C
:1044300001207047107800B902E0521C491CF3E7D4
:1044400000BF0020F5E706E002780A70027802B9A2
:1044500002E0401C491CF7E700BF704701460020FE
:1044600005E00A7802B903E0421CD0B2491CF8E723
:1044700000BF704710B50246012000E050430B001A
:10448000A1F10104E1B2F9D110BD2DE9F0430746D5
:104490000E4600254FF00A083C46002030601FE021
:1044A0002078392802DC207830280ADA207846285B
:1044B00002DC2078412804DA2078582809D1012D1F
:1044C00007D12078412801DB4FF01008681CC5B2E5
:1044D00005E0207800B904E00120BDE8F083641C09
:1044E000DEE700BF3C46B8F1100F0FD1032D01DA13
:1044F0000220F2E72078302806D16078582803D1CE
:10450000A41CA81EC5B204E00320E6E70DB90420F0
:10451000E3E71BE00DB1681EC5B22078392806DC40
:104520002078302803DB2078A0F1300902E02078E1
:10453000A0F1370929464046FFF79CFF316809FB87
:1045400000103060641C207800B900E0E2E700BF92
:104550000020C2E710B50446002010700BE0207860
:104560000870641C491C1078401C10701078984228
:1045700001DB012010BD2078202802D020780028FF
:10458000EDD10020087000BFF4E70146491C00E0AF
:10459000491C0878202801D10029F9D108787047F2
:1045A0002DE9FF4F85B08046894600270020049002
:1045B0000390012002904FF0000B002544461DE0BF
:1045C0002078202816D005F07F00052812DA0DB9D2
:1045D00045F0800505F07F00042803D120782A28C3
:1045E00000D00EE0207805F07F010DF80100681C76
:1045F000C5B202E0852D00D103E0641C20780028BC
:10460000DED100BF8DB1002005F07F010DF8010063
:10461000CBA16846FFF706FF18B900210898017082
:1046200002E001210898017000254FF0000A44467D
:1046300014E0641C0AF1010000F0FF0A2078202831
:1046400002D020782A2809D12046FFF79EFF06468F
:10465000282E03D02A2E01D0CDF810A020782828AB
:1046600002D020780028E4D14446049810B1049880
:10467000401C04444FF0000A002654E0207810B992
:104680004FF0010A50E02078282803D116B9781C91
:10469000C7B213E02078292808D13EB917B1781E97
:1046A000C7B201E04FF0010A47B93DE02078222867
:1046B00004D10EB9012000E00020064647B9207859
:1046C00020282FD0207889F8000009F1010929E07D
:1046D00020782C2804D101200290681CC5B214E077
:1046E0002078202811D0207828280ED04DB9BBF191
:1046F000050F06DA20780DF80B000BF1010000F031
:10470000FF0B0298401CC0B20290012F0AD1029800
:10471000022807D10298401CC0B202900398401CA6
:10472000C0B20390641CA9E700BF0398012809D117
:1047300000200DF80B0082A16846FFF773FE08B950
:1047400000200390079903980870002089F8000062
:10475000504609B0BDE8F08FF0B50346154600207D
:1047600000220026002455E01F782C2F01D104B927
:1047700001221F78292F01D01F780FB904B94AE010
:10478000002E34D11F78302F02DB1F78392F11DD36
:104790001F78612F02DB1F78662F0BDD1F78412FFA
:1047A00002DB1F78462F05DD1F78582F02D01F78B7
:1047B000782F0CD102B12EE01F78612F03DB1F7818
:1047C000203F0F7001E01F780F70491C1FE01F7819
:1047D000222F04D102B11EE00126012417E01F7828
:1047E000202F14D01F782C2F11D0FF2613E01F7814
:1047F000222F00D1002402B10DE044B11F785C2FBC
:1048000002D15B1C471CF8B21F780F70491C471C73
:10481000F8B25B1CA8E700BF00270F702E70F0BD38
:1048200002460020002105E0474B5B5C0344D8B200
:104830004B1CD9B29142F7DB70472DE9F043B5B07C
:1048400005460F460024002604E000213E4881551D
:10485000701CC6B20A2EF8DB06E06D1C287818B969
:10486000012035B0BDE8F08328782828F5D16D1CEB
:1048700061E034AA69462846FFF76EFF06463544D4
:104880009DF8D00020B1012827D0FF284CD149E065
:104890009DF8000000B333A96846FFF7F6FD064611
:1048A0000EB10220DDE72046FFF7BAFF26490A31A4
:1048B000339A0A50A1F12400008B0121A1408843C2
:1048C00021491A39088304211F480155601CC4B2CC
:1048D0000A2C01DD0320C4E726E06846FFF7BEFD91
:1048E000401C00F0FF082046FFF79AFF16490A31E6
:1048F00000EB010949466846FFF7A5FD12481A3842
:10490000018B0120A040014388B20F491A39088366
:104910000D4800F80480601CC4B20A2C01DD03209D
:104920009FE701E002209CE700BF2878292801D0FA
:10493000287800B900E09CE700BF3C70002090E7B9
:10494000766F6964000000009E0000207047000040
:104950001CB50C46064B7B4469460090204600F08F
:1049600056FA04460020694600F064FA20461CBD51
:10497000DB0400000FB4044910B503AA029800F04C
:1049800075FA10BC5DF814FB3400002070B50446C5
:1049900085690068C10601D5302600E02026C007E1
:1049A00007D070BDD4E9012130469047206A401CF1
:1049B00020626D1EF6D570BD70B50446856900781D
:1049C000C00707D170BDD4E9012120209047206A9B
:1049D000401C20626D1EF6D570BD70B50C460546B4
:1049E000012A05D02878800600D5EA69002302E074
:1049F000012305E05B1C934202D2E05C0028F9D160
:104A0000A869E618C01AA861286A184428622846CE
:104A1000FFF7BCFF04E0D5E9012114F8010B904732
:104A2000B442F8D32846FFF7C7FF70BD2DE9F04127
:104A30000646002410687529314616A510D000F0EE
:104A400062F9002802DA404213A507E031688A07BC
:104A500001D512A502E0490704D511A5012401E002
:104A600000F05AF900210A2206F1240709E0B0FB00
:104A7000F2FCB0FBF2F302FB1C0030307854184615
:104A8000491C0028F3D123462A463046BDE8F041B0
:104A900000F04BB9000000002D0000002B000000CA
:104AA00020000000F0B40D460188090502D5214C14
:104AB0007C4402E01F4C7C440E34002100F12406AB
:104AC00008E002F00F071209E75D42EA03721B09D2
:104AD0007754491C52EA0307F3D1027800231207E6
:104AE00004D5702D06D009B1022311342246F0BC42
:104AF00000F01BB901231034F8E770B504460D46E9
:104B00002146106800F008F9024629462046BDE813
:104B100070400023C6E7D21D22F00703D3E900232B
:104B2000C0E70368126843F0200303600823C361F1
:104B30000023B7E7C43200002DE9F05F8946044640
:104B40004FF0000ADFF874B1FB44C0F820A0204603
:104B5000E1688847002874D0252806D0D4E90121CF
:104B60009047206A401C2062F1E700265F462046FD
:104B7000E16888472028054607DB312D05D27819E2
:104B800010F8200C08B10643F1E7B00701D526F074
:104B90000406C4F81CA00027C4F818A02A2D09D0C8
:104BA000284601F0CEF938B304EB8708303DC8F849
:104BB000185019E059F8041B204604EB8702916154
:104BC000E1688847012F054618D1E069002820DAFE
:104BD00026F020061DE0D8F8180000EB800005EB59
:104BE00040003038C8F818002046E168884705467C
:104BF00001F0A7F90028EED1012F0AD02E2D08D1FF
:104C00002046E16888477F1C0546022F46F02006B3
:104C1000C4DBA069002803DA404246F00106A06127
:104C2000F00701D026F010066C2D0BD0682D09D0AE
:104C30004C2D39D06A2D35D0742D35D07A2D33D006
:104C400016E038E0E1682F4620468847B84205461E
:104C500009D16C2F26D04FF48060E16806432046CE
:104C60008847054604E06C2F1AD04FF48070064345
:104C70000DB3A5F14100192802D8203546F400668D
:104C80004A462946204626604E46FBF7ABFA80B1DD
:104C900001280BD0F61D26F0070000F1080956E7A1
:104CA0004020E4E78020D8E70020D6E706F1040999
:104CB0004DE7284652E7206ABDE8F09F54320000D5
:104CC00010B5431C02E010F8011B71B18107FAD145
:104CD0004FF0013202C88C1A8C4314EAC211F9D089
:104CE000C01A0A0603D0C01E10BDC01A10BD0A04A7
:104CF00001D0801E10BD0902FCD0401E10BD7047BF
:104D000070477047704709684A0501D540B270473F
:104D1000C905FCD500B2704709684A0501D5C0B283
:104D20007047C905FCD580B270472DE9F0470D46A4
:104D300099469246044600F124080168880604D585
:104D4000E06921F01001216000E00120A84201DDAE
:104D5000471B00E00027A1697A1902EB0900081A35
:104D6000A0612078C00602D42046FFF70FFE00267F
:104D700008E0D4E901211AF806009047206A401C97
:104D8000761C20624E45F4DB2078C0060AD520460A
:104D9000FFF7FCFD06E0D4E9012130209047206AAE
:104DA000401C2062381EA7F10107F4DC07E0D4E9BB
:104DB000012118F805009047206A401C2062281E37
:104DC000A5F10105F3DC2046FFF7F6FD207800068B
:104DD00002D50220BDE8F0870120FBE711680268D8
:104DE000006A530501D508700AE0D30501D5088093
:104DF00006E0130603D5C217C1E9000200E008600F
:104E00000120704701694A1C02610878704700B5AB
:104E10008FB0CDE901310021059105497944CDE9F3
:104E2000031011466846FFF787FE0FB000BD000073
:104E3000E5FFFFFF0A6802F8010B0A60704710B532
:104E4000436913B1AFF3008001E0FFF7C6FD012015
:104E500010BD127800F124010A7000224A7001226C
:104E6000EDE711684FF0FF32E9E70000074B70B53E
:104E70000D467B44FFF7CBFF0446284600F044FB79
:104E800010B14FF0FF3070BD204670BDE1CCFFFF88
:104E90002DE9FF5F15468A460446DFF8AC80F844EA
:104EA0000027D8E900103E46CDE9001010E03AF89E
:104EB00016106A4602A800F02BFB411C07D021788F
:104EC000890603D5E269391891420DD80744761C4A
:104ED0002078800602D5E069B84205DDAE42E6DB07
:104EE0003AF816000028E2D1A069C01BA061204654
:104EF000FFF74CFDD8E90010CDE90010002017E0C5
:104F00003AF818106A4602A800F002FBB0F1FF3F21
:104F100081460BD000250DF1080B05E0D4E90121F5
:104F20001BF8050090476D1C4D45F7D308F10100B3
:104F3000B0428046E4DB206A384420622046FFF716
:104F40003BFDBDE8FF9F0000122F00002DE9F0415E
:104F50008046D21D22F007020025D2E90002F52981
:104F600015A614D0011E72F1000106DA0023D0EB61
:104F7000030063EB020211A608E0D8F800108B07CB
:104F800001D50FA602E0490701D50EA6012511465D
:104F9000002408F1240704E000F04EF830323A55BE
:104FA000641C50EA0102F7D12B46324621464046A6
:104FB000BDE8F041FFF7B9BE000000002D00000081
:104FC0002B0000002000000030B4002100F1240478
:104FD00008E002F00705D208303542EA4372DB08E8
:104FE0006554491C52EA0305F3D10468002310A25A
:104FF000250708D504F020040C4304D0C46901231C
:105000000CA2641EC46130BCFFF78FBE10B504460D
:1050100021461068FFF780FE02462046BDE810409A
:105020000023D1E7D21D22F00701D1E90023CBE70D
:10503000000000003000000030B5B0F10A024FEA75
:10504000900E71F100034EEA817EB0EB0E0061EB31
:1050500091014FEA101E4EEA017E10EB0E0041EB6B
:1050600011114FEA102E4EEA016E10EB0E0041EBCB
:1050700011214FEA104E4EEA014E10EB0E0041EBAB
:105080001141401841F100014FEAD00040EA41705F
:105090004FEAD10110EB80054FEA810444EA907495
:1050A00044EB01046D1944EB0404521BA3414FF07F
:1050B000000348BF0A3200D530BD401C41F1000159
:1050C00030BD70472DE9FF4F0C461E464FF0FF37AD
:1050D0008BB0D2E90001DDF860800A908A46C1F306
:1050E0000A5505B93D46002108464FF00000BAF1C7
:1050F000000F00F4400005DA00EB80004FF440019F
:1051000001EA50004FEA9059B9F1010F00DDB946AC
:105110000A9850EA4A000ED044F61050A5F2FF3526
:1051200045432F14B8F1000F1ED07542291E1EDD15
:10513000C9F100021CE0B8F1010F4FF0000001D0EE
:10514000302103E0F24305E02154401CB042FBDB78
:1051500030460022002121540B99C1F80880C1E992
:1051600000200FB0BDE8F08FBD1B6D1CDEE74A4686
:1051700000DA694206A800F05DFA06AB93E8070082
:1051800003AB83E8070050460A9900F00BFB8DE85B
:105190000700A0F500501F3800900398002D09DD8E
:1051A00042F21F014A46084403A90390684600F0F2
:1051B0006AFD08E0A0F500504A461F3803A9039095
:1051C000684600F074FD8DE807000004000C03D071
:1051D0004FF0FF30410800E01046B8F1000F03D057
:1051E0000022009215461EE0751E05D4FFF724FF2D
:1051F000303262556D1EF9D5B3460122084302D004
:1052000000227F1C04E02078302801D100227F1E7C
:10521000002A099786D01DE0112D07DAFFF70CFF51
:10522000303262556D1C50EA0102F5D1084302D0BC
:105230000098C8B10EE00021681E05E0235C625CA6
:1052400063542254401E491C8142F7DBAB46A81B25
:10525000401E0990002004F80B000B98099AC0F832
:105260000880C0E9002B7CE711264FF0000859E7C1
:105270002DE9F04F88460446D21D22F0070191B077
:10528000D1E90001CDE90A0100F047FE02460B9882
:10529000C00F01D02D2007E02068810701D52B2009
:1052A00002E0202101EAC000032A099001D0072A68
:1052B00005DB03464146204600F07CF90BE12078EF
:1052C000800601D5E06900E00620B8F1650F81464F
:1052D00006D0B8F1660F18D0B8F1670F70D131E081
:1052E0000020B9F1110F009001DB112301E009F159
:1052F00001030AAA01A90CA8FFF7E4FEDDE90C707E
:10530000002609F10105834647E001204B46009045
:105310004FF000470AAA01A90CA8FFF7D3FEDDE968
:105320000DB00C995D46002610B909F101000D1869
:10533000B9EB050003D4C0F1FF3609F10105A5EB77
:1053400009002BE0B9F1010F01DA4FF0010900204B
:10535000B9F1110F0090484601DD112300E003462A
:105360000AAA01A90CA8FFF7ADFEDDE90C704D46B5
:1053700000268346207800070AD4AB4500DA5D4654
:1053800001A8012D04DD411911F8011C302907D0B5
:105390004F4502DA17F1040F04DA012082460FE0CC
:1053A0006D1EEEE7002F02DCED1B3E4403E0781C8F
:1053B000A84200DD7D1CB81B00F1010A4FF0004738
:1053C0002078000703D4AA4501DB4FF0FF3A002103
:1053D000B7F1004F0DF143088DF8431024D002209F
:1053E0002B23002F01DA7F422D230A21021EA0F178
:1053F000010000DC5FB197FBF1FC97FBF1F201FBD0
:105400001C7C17460CF1300C08F801CDEEE7A8F132
:10541000010003702188090501D5452100E06521BF
:10542000A0F1010800F8011C09980FA9A1EB0807D9
:10543000FF1D00B10120411901EBEA70A169384458
:10544000081A401EA0612078C00602D42046FFF74B
:105450009DFA099828B1D4E901219047206A401C9F
:1054600020622078C00622D52046FFF78FFA1EE082
:10547000002E04DBB34502DD01A8805D00E0302092
:10548000D4E901219047206A401C2062761CAAF1D1
:1054900001005FEA000A0AD100F088F8C0680168DC
:1054A000405CD4E901219047206A401C2062281EFC
:1054B000A5F10105DCDC07E0D4E9012118F8010BB6
:1054C0009047206A401C2062381EA7F10107F3DCD8
:1054D0002046FFF771FA032011B043E610B5436987
:1054E00013B1AFF3008001E0FFF7D2FC012010BD43
:1054F000128800F1240182840022C2840122EDE797
:1055000011684FF0FF32E9E7007B00F08000704740
:1055100070B516460C46054600F040F8036893F84F
:105520000101012806D0FF2C0FD8185D68B10120B9
:105530002C7070BDD3F807013246214603F20713E1
:1055400003442846BDE8704018474FF0FF3070BD57
:10555000754600F0E3F8AE4605006946534620F074
:105560000700854618B020B5FCF7A0FBBDE8204039
:105570004FF000064FF000074FF000084FF0000B0F
:1055800021F00701AC46ACE8C009ACE8C009ACE8C2
:10559000C009ACE8C0098D467047000010B500F0A6
:1055A00005F8001D10BD00BFD50900000048704778
:1055B000100B00202DE9F0411F4604460326016828
:1055C000072A01F4006004DB08B116A505E016A562
:1055D00003E008B115A500E015A521F0100020603A
:1055E000A069C01EA0610FB1401EA0612046FFF758
:1055F000CDF94FB1D4E9012138469047206A401CCB
:105600002062C01C206206E0206AFAE7D4E901218A
:1056100015F8010B9047761EF8D22046FFF7CCF91B
:10562000BDE8F0814E414E006E616E00494E46006D
:10563000696E66002DE9F047814616468AB0334808
:1056400078440DC88DE80D0030487844801C03ACC8
:105650000DC884E80D0041F69B300844372190FBCB
:10566000F1F290FBF1F5A5F1800501FB12041B3C62
:1056700002D56442012000E00020DFF890A08046BF
:105680000027FA44AAF1BE0A0DE0E00709D032462D
:10569000684607EB47010AEB810100F008FB8DE843
:1056A000070064107F1C002CEFD1184F7F44AC3FE3
:1056B00018E0E80714D007EB04100DF1180A90E881
:1056C0000E008AE80E00C068F04201D198190890D7
:1056D000324606A903A800F0EAFA03AB83E8070004
:1056E0006D10641C002DE4D132466946B8F1000FFC
:1056F00003A802D000F0C7FA01E000F0D8FAC9E927
:105700000001C9F808200AB0BDE8F087F4270000BE
:105710000446AFF300802046FAF7C7FD0048704703
:10572000F00A00204FF0013C50F8042B51F8043BE4
:105730009A4221D1A2EB0C03934313EACC1317D165
:1057400050F8042B51F8043B9A4215D1A2EB0C03FC
:10575000934313EACC130BD150F8042B51F8043BBC
:105760009A4209D1A2EB0C03934313EACC13DBD08A
:105770004FF00000704700BFD01A01BAB1FA81F1B2
:1057800001F0180122FA01F0CB40C1F12001DBB297
:10579000C0B2C01A2CFA01F3D11A914311EAC31115
:1057A000E6D170475FEA400C08BF91F0000F4FEA66
:1057B0008C234FEAC12243EA51514FEA1C5018BFD3
:1057C00000F5F0404FEA300018BF41F000415FEAB9
:1057D0006C5C00F02980BCF1FF3F08BF40F08040C6
:1057E0007047130C06BF12044FF0100C4FF0000C62
:1057F000130E04BF12020CF1080C130F04BF1201A8
:105800000CF1040C930F04BF92000CF1020CD30FA7
:1058100004BF52000CF1010C11464FF00002A0F140
:105820001F00A0EB0C00704711F0004F08BF70473D
:1058300031F000413FF4D5AF0B0C06BF09044FF027
:10584000100C4FF0000C0B0E04BF09020CF1080CF9
:105850000B0F04BF09010CF1040C8B0F04BF89006E
:105860000CF1020CCB0F04BF49000CF1010CCCF180
:105870002003A0EB0C0022FA03F302FA0CF241EA37
:10588000030100F10100704720F07F4C80EA030023
:1058900023F07F47ACEB070303F57C5300F0004097
:1058A00003F1FF032DE980494FEA154B09B44FEA94
:1058B000144325EA0B4E24EA03480FF2042606EBB4
:1058C000132749083E785FEA320203FB0667C7F5F3
:1058D000000707FB06F64FEA54374FEAD64606F1B3
:1058E000020607FB066CCCF1005C4FEA1C472CEA71
:1058F000074C07FB06F40CFB06F504EB15464FEAD4
:10590000961634BF00204FF000404FEAD13706FB17
:1059100007FC4FEA1C4C0CFB0BF7D21B03FB0CF7EC
:1059200061EB07010CFB0EF7B0EB074072EB17427F
:105930000CFB08F734BFA2EB0742B2EB074261EB66
:1059400017414FEA0C444FEA910706FB07FC4FEA68
:105950001C4C0CFB0BF7B0EBC74072EB573203FB50
:105960000CF734BFA2EBC742B2EBC74261EB573131
:105970000CFB0EF7B0EBC70072EB57720CFB08F78D
:1059800034BFA2EBC702B2EBC70261EB5771039FB2
:105990004FEA816141EA921104EBCC044FEAD1371E
:1059A0004FEA826206FB07FC42EA90124FEA8060EF
:1059B0004FEA1C4C0CFB0BF7D21B03FB0CF761EB03
:1059C00007010CFB0EF7B0EB074072EB17420CFB24
:1059D00008F734BFA2EB0742B2EB074261EB174175
:1059E0004FEA8C554FEA910704EB9C2406FB07FC19
:1059F0004FEA1C4C0CFB0BF7B0EBC74072EB573275
:105A000003FB0CF734BFA2EBC742B2EBC74261EB1A
:105A100057310CFB0EF7B0EBC70072EB57720CFB63
:105A200008F734BFA2EBC702B2EBC70261EB5771B4
:105A300015EB4C254FEA816141EA92114FEA8262EF
:105A40004FEAD13742EA901206FB07FC44F100040A
:105A50004FEA80604FEA1C4C0CFB0BF7D21B03FB98
:105A60000CF761EB07010CFB0EF7B0EB074072EB94
:105A700017420CFB08F734BFA2EB0742B2EB074218
:105A800061EB174115EB1C154FEA813141EA924158
:105A90004FEA823242EA90424FEA80304FEA0C7677
:105AA00044F1000448EA03434EEA0B484FF0000E6D
:105AB000B2EB080C71EB030724BF624639464EEB8C
:105AC0000E0E4FF0000B0018524149414BEB0B0BEF
:105AD000B2EB080C71EB03077BF1000B24BF6246AD
